:020000040000FA
:1000000068020010650100006D0100006F01000032
:1000100000000000000000000000000000000000E0
:10002000000000000000000000000000710100005E
:1000300000000000000000007301000075010000D6
:1000400077010000770100007701000077010000D0
:1000500077010000770100007701000077010000C0
:1000600077010000770100007701000077010000B0
:1000700077010000770100007701000077010000A0
:10008000770100007701000069020000770100009D
:100090007701000077010000770100007701000080
:1000A0007701000077010000770100007701000070
:1000B0007701000077010000770100007701000060
:1000C00000F002F800F03EF80CA030C80838241800
:1000D0002D18A246671EAB4654465D46AC4201D180
:1000E00000F030F87E460F3E0FCCB6460126334274
:1000F00000D0FB1AA246AB4633431847A4020000C7
:10010000C4020000103A02D378C878C1FAD8520766
:1001100001D330C830C101D504680C6070470000BD
:100120000023002400250026103A01D378C1FBD813
:10013000520700D330C100D50B6070471FB51FBDFB
:1001400010B510BD00F02BF81146FFF7F7FF00F0D7
:10015000CBF800F043F803B4FFF7F2FF03BC00F064
:1001600049F800000748804707480047FEE7FEE7D8
:10017000FEE7FEE7FEE7FEE704480549034A054BB4
:100180007047000001030000C1000000680000107B
:10019000680200106800001070477047704775468D
:1001A00000F024F8AE46050069465346C008C0007A
:1001B000854618B020B5FFF7DFFF60BC002749086F
:1001C000B6460026C0C5C0C5C0C5C0C5C0C5C0C5EF
:1001D000C0C5C0C5403D49008D46704710B50446B6
:1001E000C046C0462046FFF7B6FF10BD0048704726
:1001F0000400001001491820ABBEFEE726000200F3
:10020000704700001448006801210904084312499E
:100210000860124880684007400F1049886008460F
:10022000806888600C4800680121090488430A49F5
:1002300008600846006840210843074908600848EC
:10024000006801210843064908600648C06B012187
:1002500008430449C863704780800440004004405C
:1002600000800250C03F025001200B4908600B483B
:10027000C06BC007C00F002806D00848C06B4008FC
:1002800040000649C86305E00448C06B01210843EB
:100290000249C8637047000000400140C03F02505F
:1002A0000D4800680121490208430B4908600120FC
:1002B0000A490860032048610948006888610120F4
:1002C00048601220002805DBC206D20E01219140B1
:1002D000044A116000BF7047808004400040014024
:1002E0000000001000E100E0FFF78CFFFFF7D8FFEF
:1002F00000BFFEE70000000000000000FFFFFFFF5E
:1003000008B52548806B2021884323498863002055
:1003100022490862009003E000BF0098401C009052
:100320000098C828F8D301201C4940310860486073
:10033000002048600120486000BF184840304068F5
:10034000C007C00F0028F8D0232014498860124845
:10035000806B802188431049886300BF0F48C068C4
:10036000C007C00F0028F9D003200C4940310863B2
:1003700001204863002048630120486300BF07480C
:100380004030406BC007C00F0028F8D0012003495F
:100390004031886308BD00000082044000800440B2
:1003A000C003000000000010040000000401000071
:1003B000C4030000040000106402000020010000DB
:0403C000006CDC02EF
:04000005000000C136
:00000001FF
